{
  "contractName": "faucet",
  "abi": [
    {
      "constant": true,
      "inputs": [],
      "name": "num",
      "outputs": [
        {
          "name": "",
          "type": "int256"
        }
      ],
      "payable": false,
      "stateMutability": "view",
      "type": "function"
    },
    {
      "constant": true,
      "inputs": [],
      "name": "number",
      "outputs": [
        {
          "name": "",
          "type": "uint256"
        }
      ],
      "payable": false,
      "stateMutability": "view",
      "type": "function"
    }
  ],
  "bytecode": "0x6080604052610d486000557fffffffffffffffffffffffffffffffffffffffffffffffffffffffffffffff7b60015534801561003a57600080fd5b5060d0806100496000396000f3fe6080604052600436106043576000357c0100000000000000000000000000000000000000000000000000000000900480634e70b1dc1460485780638381f58a146070575b600080fd5b348015605357600080fd5b50605a6098565b6040518082815260200191505060405180910390f35b348015607b57600080fd5b506082609e565b6040518082815260200191505060405180910390f35b60015481565b6000548156fea165627a7a72305820f4e345c4fc4a539bd105572d2c426eaac0f6e8d7513abbf9f405a63b7584e0220029",
  "source": "pragma solidity >=0.4.22 <0.9.0;\r\ncontract faucet{\r\n    uint public number= 3400; //postive\r\n    int public num = -133; //negative\r\n}",
  "sourcePath": "D:\\chain\\contracts\\Contract.sol",
  "compiler": {
    "name": "solc",
    "version": "0.5.1+commit.c8a2cb62.Emscripten.clang"
  },
  "schemaVersion": "3.4.16",
  "updatedAt": "2023-12-27T12:43:26.489Z",
  "networkType": "ethereum",
  "devdoc": {
    "methods": {}
  },
  "userdoc": {
    "methods": {}
  }
}